{
    "contractName": "JointSavings",
    "abi": [
        {
            "constant": false,
            "inputs": [
                {
                    "name": "amount",
                    "type": "uint256"
                },
                {
                    "name": "recipient",
                    "type": "address"
                }
            ],
            "name": "withdraw",
            "outputs": [],
            "payable": false,
            "stateMutability": "nonpayable",
            "type": "function"
        },
        {
            "constant": false,
            "inputs": [
                {
                    "name": "account1",
                    "type": "address"
                },
                {
                    "name": "account2",
                    "type": "address"
                }
            ],
            "name": "setAccounts",
            "outputs": [],
            "payable": false,
            "stateMutability": "nonpayable",
            "type": "function"
        },
        {
            "constant": true,
            "inputs": [],
            "name": "contractBalance",
            "outputs": [
                {
                    "name": "",
                    "type": "uint256"
                }
            ],
            "payable": false,
            "stateMutability": "view",
            "type": "function"
        },
        {
            "constant": true,
            "inputs": [],
            "name": "lastWithdrawAmount",
            "outputs": [
                {
                    "name": "",
                    "type": "uint256"
                }
            ],
            "payable": false,
            "stateMutability": "view",
            "type": "function"
        },
        {
            "constant": false,
            "inputs": [],
            "name": "deposit",
            "outputs": [],
            "payable": true,
            "stateMutability": "payable",
            "type": "function"
        },
        {
            "constant": true,
            "inputs": [],
            "name": "lastToWithdraw",
            "outputs": [
                {
                    "name": "",
                    "type": "address"
                }
            ],
            "payable": false,
            "stateMutability": "view",
            "type": "function"
        },
        {
            "payable": true,
            "stateMutability": "payable",
            "type": "fallback"
        }
    ],
    "bytecode": "608060405234801561001057600080fd5b5061036c806100206000396000f3fe6080604052600436106100765763ffffffff7c0100000000000000000000000000000000000000000000000000000000600035041662f714ce811461007857806343e02605146100b15780638b7afe2e146100ec578063b831461e14610113578063d0e30db014610128578063e15e1c9514610130575b005b34801561008457600080fd5b506100766004803603604081101561009b57600080fd5b5080359060200135600160a060020a0316610161565b3480156100bd57600080fd5b50610076600480360360408110156100d457600080fd5b50600160a060020a03813581169160200135166102e8565b3480156100f857600080fd5b50610101610323565b60408051918252519081900360200190f35b34801561011f57600080fd5b50610101610329565b61007661032f565b34801561013c57600080fd5b50610145610331565b60408051600160a060020a039092168252519081900360200190f35b600054600160a060020a038281169116148061018a5750600154600160a060020a038281169116145b15156101f757604080517f08c379a000000000000000000000000000000000000000000000000000000000815260206004820152601b60248201527f596f7520646f6e2774206f776e2074686973206163636f756e74210000000000604482015290519081900360640190fd5b303182111561026757604080517f08c379a000000000000000000000000000000000000000000000000000000000815260206004820152601c60248201527f596f7520646f6e2774206861766520656e6f7567682066756e64732100000000604482015290519081900360640190fd5b600254600160a060020a038281169116146102a5576002805473ffffffffffffffffffffffffffffffffffffffff1916600160a060020a0383161790555b3031829003600455604051600160a060020a0382169083156108fc029084906000818181858888f193505050501580156102e3573d6000803e3d6000fd5b505050565b60008054600160a060020a0393841673ffffffffffffffffffffffffffffffffffffffff199182161790915560018054929093169116179055565b60045481565b60035481565b565b600254600160a060020a03168156fea165627a7a723058203760dd322f26287133f1d2bfc7b928aa12fb7dbcd07e0f94cc797c41869303700029",
    "sourcePath": "/Users/brianwetzel/Bootcamp/Homework/HW15-Solidity-JointSavings/joint_savings.sol",
    "compiler": {
        "name": "solc",
        "version": "0.5.0+commit.1d4f565a"
    },
    "functionHashes": {
        "contractBalance()": "8b7afe2e",
        "deposit()": "d0e30db0",
        "lastToWithdraw()": "e15e1c95",
        "lastWithdrawAmount()": "b831461e",
        "setAccounts(address,address)": "43e02605",
        "withdraw(uint256,address)": "00f714ce"
    },
    "gasEstimates": {
        "creation": {
            "codeDepositCost": "175200",
            "executionCost": "220",
            "totalCost": "175420"
        },
        "external": {
            "": "192",
            "contractBalance()": "428",
            "deposit()": "194",
            "lastToWithdraw()": "647",
            "lastWithdrawAmount()": "450",
            "setAccounts(address,address)": "40831",
            "withdraw(uint256,address)": "infinite"
        }
    }
}